:020000040800F2
:10000000C0080020051900086B0200086D020008F6
:100010007102000875020008790200080000000063
:100020000000000000000000000000007D02000849
:100030007F0200080000000081020008830200081F
:100040001F1900081F1900081F1900081F190008B0
:100050001F1900081F1900081F1900081F190008A0
:100060001F1900081F1900081F1900081F19000890
:100070001F1900081F1900081F1900081F19000880
:100080001F1900081F1900081F1900081F19000870
:100090001F1900081F1900081F1900081F19000860
:1000A0001F1900081F1900081F1900081F19000850
:1000B000071100081F1900081F1900081F19000860
:1000C0001F1900081F1900081F1900081F19000830
:1000D0001F190008411700081F1900081F19000800
:1000E0001F1900081F1900081F1900081F19000810
:1000F0001F1900081F1900081F1900081F19000800
:100100001F1900081F190008390800081F190008E6
:100110001F1900081F1900081F1900081F190008DF
:100120001F1900081F1900081F1900081F190008CF
:100130001F1900081F1900081F1900081F190008BF
:100140001F1900081F1900081F1900081F190008AF
:100150001F1900081F1900081F1900087718000848
:100160001F1900081F1900081F1900081F1900088F
:100170001F1900081F1900081F1900081F1900087F
:100180001F1900081F19000800F002F800F03CF8E1
:100190000AA090E8000C82448344AAF10107DA45E2
:1001A00001D100F031F8AFF2090EBAE80F0013F0F8
:1001B000010F18BFFB1A43F0010318476038000015
:1001C00080380000103A24BF78C878C1FAD85207A6
:1001D00024BF30C830C144BF04680C6070470000C1
:1001E0000023002400250026103A28BF78C1FBD840
:1001F000520728BF30C148BF0B6070471FB503F0DE
:10020000F8FB1FBD10B510BD03F02CF91146FFF728
:10021000F5FF00F008F803F04AF903B4FFF7F2FF26
:1002200003BC01F029FA00BF00F034F94FF4A060DC
:1002300001F088FBA82001F09DF94FF4E13001F0B6
:1002400029FA4FF4964001F0C1FA01F09FF800F04E
:10025000B3FA00F009FD532144F61F6000F03AF9AB
:1002600002E0032000F0E0FBFBE7704700BFFEE781
:1002700000BFFEE700BFFEE700BFFEE77047704724
:10028000704770470CB500200190009076480068D8
:1002900040F480307449086000BF7348006800F47F
:1002A000003000900198401C0190009818B9019806
:1002B000B0F5A04FF1D16C48006800F4003010B1E7
:1002C0000120009001E0002000900098012846D114
:1002D00065484030006840F0805063494031086014
:1002E0006248006840F44040604908605E48083059
:1002F00000685D49083108600846006840F4004025
:1003000008600846006840F4A05008605848091F7B
:100310000860081F006840F08070091F086000BF77
:100320005148006800F000700028F9D040F20570D4
:10033000504908604C480830006820F003004A49E2
:10034000083108600846006840F00200086000BFFD
:1003500045480830006800F00C000828F8D10CBDB2
:1003600010B54548006840F47000434908603E48B5
:10037000006840F001003C49086000203A4908311B
:100380000860394800683D490840374908603C48E2
:10039000091D0860081F006820F48020091F0860FC
:1003A000002031490C310860FFF76CFF4FF000600E
:1003B00031498039086010BD70B500200022022349
:1003C00000240221284D08352D6805F00C0020B1CD
:1003D000042806D0082834D107E02A4D2A4E35607B
:1003E00033E02A4D284E35602FE01F4D2D1D2D681E
:1003F000C5F380541C4D2D1D2D6805F03F0154B1EF
:10040000224DB5FBF1F5184E361D3668C6F3881639
:1004100005FB06F209E01B4DB5FBF1F5124E361D4A
:100420003668C6F3881605FB06F20F4D2D1D2D68A4
:10043000C5F301456D1C6B00B2FBF3F5124E356040
:1004400003E0104D104E356000BF00BF064D08356B
:100450002D68C5F303150E4E705D0B4D2D68C5401C
:10046000094E356070BD0000003802400070004049
:1004700008544007003C024088ED00E0FFFFF6FE14
:10048000103000240024F4000000002000127A0044
:10049000040000201CB50121102002F063FE40F290
:1004A000FE70009001208DF804008DF806000320F6
:1004B0008DF8050001208DF807006946044801F019
:1004C00037FB40F2FE71024801F0B0FB1CBD00009A
:1004D0000010024030B58BB004460D4601210420C7
:1004E00002F089FE0121022002F03CFE01210820D9
:1004F00002F038FE02220621A04801F0A4FB0222ED
:1005000007219E4801F09FFB022208219B4801F031
:100510009AFB02220F219A4801F095FB4FF4E070FC
:10052000099002208DF8280003208DF82900002072
:100530008DF82A0001208DF82B0009A98F4801F0C1
:10054000F7FA4FF40040099002208DF828000320AC
:100550008DF8290001208DF82A008DF82B0009A9BB
:10056000874801F0E5FAA8B2ADF818000020ADF810
:100570001A000794ADF8200006A9824801F073FE26
:100580006020ADF804000120ADF806000220ADF8AF
:10059000100001A97B4801F0FBFE01A9794801F098
:1005A00030FF01A9774801F079FF01A9754801F0F2
:1005B000DBFF0821734802F078F80821714802F047
:1005C0007DF808216F4802F086F808216D4802F096
:1005D0008BF801216B4801F0B1FE0121694801F05F
:1005E000CBFE0BB030BD30B58BB004460D460121BB
:1005F000402002F000FE0121022002F0B3FD09229A
:100600000E215E4801F01FFB09220F215B4801F01B
:100610001AFB4FF44040099002208DF82800032077
:100620008DF8290001208DF82A008DF82B0009A9EA
:10063000524801F07DFAA8B2ADF818000020ADF8DC
:100640001A000794ADF8200006A94F4801F00BFEF0
:100650006020ADF804000120ADF806000220ADF8DE
:10066000100001A9484801F093FE01A9464801F095
:10067000C8FE0821444802F018F80821424802F058
:100680001DF80121404801F059FE01213E4801F0CA
:1006900073FE0BB030BD30B58BB004460D46012162
:1006A000022002F0A8FD0121022002F05BFD0222DF
:1006B0000421324801F0C7FA022205212F4801F037
:1006C000C2FA022200212D4801F0BDFA02220121C6
:1006D0002A4801F0B8FA3320099002208DF828004A
:1006E00003208DF8290000208DF82A0001208DF8C4
:1006F0002B0009A9214801F01BFAA8B2ADF8180097
:100700000020ADF81A000794ADF8200006A91F4894
:1007100001F0A9FD6020ADF804000120ADF806004D
:100720000220ADF8100001A9184801F031FE01A91E
:10073000164801F066FE01A9144801F0AFFE01A9B8
:10074000124801F011FF0821104801F0AEFF082106
:100750000E4801F0B3FF08210C4801F0BCFF08214E
:100760000A4801F0C1FF0121084801F0E7FD01211D
:10077000064801F001FE0BB030BD0000000402404D
:10078000000C024000080040001800400004004037
:1007900008B54FF4A06001F0D5F832208DF80000C4
:1007A00000208DF801008DF8020001208DF8030073
:1007B000684601F0CCF808BD00B585B001210846B7
:1007C00002F0D0FC0120009000208DF80400694662
:1007D0005F4801F0ADF90220009001208DF804007F
:1007E00069465B4801F0A4F90121082002F003FDED
:1007F000584801F08BFC41F28730039042F2CF0061
:10080000ADF808000020ADF80A00ADF8100002A90C
:10081000504801F028FD01214E4802F0D9F901228B
:1008200011464C4802F0C0F9FFF7B2FF01214948D8
:1008300001F0A2FD05B000BD10B50121454802F050
:10084000CAF940B10121434802F0D6F94248008874
:10085000401C4149088010BD10B500213D4801F001
:100860004BFD00203C49088001213A4801F084FDFD
:1008700010BD10B50021374801F07EFD10BD10B548
:1008800000BF354800884FF47A7100FB01F431480D
:1008900001F036FD044400202E4924310860322046
:1008A00000F0CAFE204610BD10B52DED088B0020CB
:1008B00008EE100A00249FED290AF0EE408A9FED11
:1008C000270AB0EE409A36E001202549086014203E
:1008D00000F06AFE00202349C1F8840200BF2048CE
:1008E000843800680028FAD0FFF7B6FF00BF1C4824
:1008F000843800680128FAD0FFF7BBFFFFF7BFFF7D
:1009000008EE100AB8EE480A10EE100A03F000F8DC
:1009100041EC1B0B9FED140B53EC102B02F010FE5F
:1009200041EC1A0B02F0CEFD08EE900A38EE890A6F
:10093000B0EE409A641C052CC6D1B1EE040AC9EE93
:10094000000AF0EE608AB0EE680ABDEC088B10BDBC
:1009500000000240000C00401400002000000000D5
:1009600084024042000040420000000000004D4070
:100970007FB505460C460121084602F03CFC029575
:10098000ADF804400020ADF80600ADF80C0001A958
:100990004FF0804001F067FC01221146900702F001
:1009A00003F90121880701F0E7FC1C208DF8000005
:1009B00001208DF8010003208DF8020001208DF840
:1009C0000300684600F0C3FF7FBD7FB505460C46B7
:1009D0000121082002F00FFC0295ADF80440002030
:1009E000ADF80600ADF80C0001A90E4801F03BFC83
:1009F000012211460B4802F0D7F80121094801F005
:100A0000BBFC32208DF8000001208DF8010003208E
:100A10008DF8020001208DF80300684600F097FF72
:100A20007FBD0000000C00401FB504467CB9B0EE4D
:100A30000C0A8DED000AB2EE030A8DED010AB1EE4B
:100A4000000A8DED020AB1EE040A8DED030A012CB5
:100A50000FD19FED890A8DED000AB2EE030A8DEDEC
:100A6000010A9FED850A8DED020AB1EE040A8DEDB3
:100A7000030A022C0FD19FED800A8DED000AB2EE21
:100A80000A0A8DED010A9FED7C0A8DED020AB7EE90
:100A9000080A8DED030A032C0FD1B1EE000A8DED8B
:100AA000000AB2EE0A0A8DED010AB1EE000A8DEDE0
:100AB000020AB7EE080A8DED030A9DED000ADFED8C
:100AC0006F0A30EEC00ADFED6E0A20EE200ABCEE9F
:100AD000C00A10EE101A6B4801F0B3FD322000F08E
:100AE00063FD9DED010ADFED650A30EEC00ADFED22
:100AF000640A20EE200ABCEEC00A10EE101A61480B
:100B000001F0A1FD322000F04FFD9DED020ADFED66
:100B10005B0A30EEC00ADFED5A0A20EE200ABCEE76
:100B2000C00A10EE101A574801F08FFD322000F075
:100B30003BFD9DED030ADFED510A30EEC00ADFED0B
:100B4000500A20EE200ABCEEC00A10EE101A4D48E2
:100B500001F07DFD002004B010BD70B504463225C3
:100B6000012C13D14102484801F05EF80A2000F040
:100B700063FDA102444801F057F84FF47A6000F099
:100B80005BFDA102404801F051F815E04FF40071FF
:100B90003D4801F04BF80A2000F04EFD4FF4806113
:100BA000394801F041F84FF47A6000F045FD4FF408
:100BB0008061354801F03AF805EBC50000EB0510FF
:100BC00044F62062A2EBC001304801F040FD002055
:100BD00070BD10B50446012C25D1FFF7BEFF4FF4C0
:100BE000FA6000F029FD0320FFF71EFF4FF4FA60C2
:100BF00000F022FD0020FFF717FF4FF4FA6000F02D
:100C00001BFD0120FFF710FF4FF4FA6000F014FD08
:100C10000220FFF709FF4FF4FA6000F00DFD0020FD
:100C2000FFF79BFF1EE00120FFF7FEFE4FF4FA6086
:100C300000F002FD0120FFF790FF4FF4FA6000F092
:100C4000FBFC0020FFF7F0FE4FF4FA6000F0F4FC2C
:100C50000320FFF7E9FE4FF4FA6000F0EDFC0020FE
:100C6000FFF77BFF012010BD10B5532144F61F6034
:100C7000FFF711FD10BD00009A99D9400000C8424D
:100C800000004843000400400010024000080040FB
:100C90001CB50121082002F065FA40F2FF700090B7
:100CA00000208DF8040003208DF8050001208DF848
:100CB00007006946FE4800F03BFF42F2CF013120B9
:100CC000FFF756FE1CBD10B5FA480068042803D093
:100CD000F8480068032810D1F748008800EB40006E
:100CE0000A30F6490880F448006800EB4000C0F183
:100CF0000A0048800A2088800BE0EF4880880A308C
:100D0000EE490880EC484068C0F10A004880142091
:100D10008880EA48008800EBC00202EB001044F62D
:100D20002062A2EBC001E64801F08BFCE34840885A
:100D300000EBC00202EB001044F62062A2EBC001FF
:100D4000DF4801F080FCDD48808800EBC00202EB48
:100D5000001044F62062A2EBC001D94801F075FCF6
:100D6000002010BD10B50446012C2DD1D5480068D7
:100D700050BB00F0C9FA41F2883000F05DFC082158
:100D8000D14800F051FF1021CF4800F04FFF202143
:100D9000CD4800F04BFF4021CB4800F045FF8021BB
:100DA000C94800F041FF2102C74800F03FFF002082
:100DB000C14908600120C3490860FFF784FF4FF470
:100DC0007A7000F039FC47E0022C27D1BD4800685A
:100DD00020BB00F099FA41F2883000F02DFC082188
:100DE000B94800F023FF1021B74800F01DFF202173
:100DF000B54800F019FF4021B34800F017FF8021EB
:100E0000B14800F013FFE101AF4800F00DFF0020F2
:100E1000A94908600120AB4908601DE0E4B9A94870
:100E20000068012818D10821A74800F0FFFE102112
:100E3000A54800F0F9FE2021A34800F0F7FE40216C
:100E4000A14800F0F1FE80219F4800F0EFFE4FF432
:100E500080719D4800F0EAFE002010BD10B5012110
:100E6000934800F0C7FE994908600221904800F0BD
:100E7000C1FE9649486004218D4800F0BBFE9349AD
:100E8000886008218A4800F0B5FE9049C8601021AA
:100E9000874800F0AFFE8D4908612021844800F0AA
:100EA000A9FE8A4948614021814800F0A3FE874994
:100EB000886180217E4800F09DFE8449C8614FF41E
:100EC00080717B4800F096FE804908624FF4007103
:100ED000774800F08FFE7D4948624FF48061744886
:100EE00000F088FE7949886208460068496808442D
:100EF0007649C968401A75490969401A6E490860FF
:100F000072484169006A01EB400070498969411AE1
:100F10006E48806AA1EB40008000674948606C48D9
:100F20000078012812D1694840696849096A484334
:100F3000012801D1FFF716FF644840686349C9687A
:100F40004843012802D10020FFF70CFF002010BD0C
:100F500010B558480068012819D108215A4800F0F6
:100F600063FE1021584800F061FE2021564800F031
:100F70005DFE4021544800F057FE8021524800F0A9
:100F800055FE4FF48071504800F04EFE58E049483D
:100F90000068022819D108214B4800F047FE1021B3
:100FA000494800F041FE2021474800F03DFE402125
:100FB000454800F03BFE8021434800F035FE4FF4E9
:100FC0008071414800F032FE3AE03A480068032858
:100FD00019D108213C4800F029FE10213A4800F0C0
:100FE00023FE2021384800F021FE4021364800F041
:100FF0001BFE8021344800F019FE4FF48071324806
:1010000000F014FE1CE02B480068042818D10821C9
:101010002D4800F009FE10212B4800F007FE20218A
:10102000294800F001FE4021274800F0FFFD802103
:10103000254800F0FBFD4FF48071234800F0F6FDD9
:10104000012010BD70B505460C461A4805602048C1
:101050000470FFF77DFFFFF701FFFFF734FE70BD5F
:1010600030B52DED028B83B004469FED1A0A10EEC9
:10107000105A00200190029001A800F0B4F9FFF787
:1010800013FC10EE105A284602F042FC41EC180BFB
:101090009FED110B53EC102B02F0AAFB31D89DF8F9
:1010A00004000F4911F81410884228D11AE00000FA
:1010B000000C0240280000201C0000202E00002010
:1010C000000800404800002000100240A00000205E
:1010D00044000020000000009A9999999999B93F1D
:1010E000063A00089DF80500804901EB4401497863
:1010F000884204D1012003B0BDEC028B30BD00203A
:10110000F9E7FF20F7E710B50121880701F063FD3B
:1011100001287DD17648007800284DD175480078A7
:10112000B8B900210420FFF78DFF73480078FFF75E
:1011300097FF0446012C07D1FFF74BFD01206E49B4
:1011400008706C49087003E014B9012069490870FF
:1011500000BF6848007801281ED1684948780021FE
:10116000FFF770FF64480078FFF77AFF0446012C10
:1011700011D1FFF72EFD60480078401C5E490870D1
:1011800008460078022803D103205A49087002E07B
:1011900002205849087000BF5648007803280BD138
:1011A0000121FFF74FFF56480078012804D150492C
:1011B000087000204F4908704D48007801283AD146
:1011C0004C48007880B900210420FFF73BFF4A48D3
:1011D0000078FFF745FF04462CB90020FFF7F9FC23
:1011E00001204449087000BF4248007801280ED110
:1011F000424908780021FFF725FF3F480078FFF7B4
:101200002FFF044614B902203A49087000BF00E0DD
:1012100067E03848007802280DD101210320FFF74C
:1012200011FF38480078012805D1022030490870A4
:101230000020304908702E480078022850D12D48EF
:101240000078C0B900210420FFF7FCFE2A4800788E
:10125000FFF706FF0446012C08D1FFF7BAFC032074
:101260002549087001202349087003E014B90120C2
:101270002049087000BF1F48007801281ED11F496F
:1012800008780021FFF7DEFE1B480078FFF7E8FE34
:101290000446012C11D1FFF79CFC17480078401C34
:1012A0001549087008460078042803D10220114926
:1012B000087002E001200F49087000BF0D48007857
:1012C00002280DD101210320FFF7BCFE0D48007854
:1012D000012805D10320064908700020054908703F
:1012E00000BF0121880701F087FC10BD063A000805
:1012F0004C0000204D0000204E000020163A00084F
:10130000180000201900002010B508210C4800F03A
:101310008DFC10210A4800F089FC2021084800F0CB
:1013200085FC4021064800F081FC8021044800F043
:101330007DFC4FF48071024800F078FC002010BD65
:101340000010024070B505460E4600240BE0295DF2
:10135000814800F0CBFD00BF40217F4800F076FEC1
:101360000128F9D1641CB442F1DB70BD02460020B3
:101370007A4B1B780B7000BF04E0794B1B5C135455
:10138000431CD8B20B788342F7DC70471FB50020AE
:10139000039000240090019002900A217148FFF709
:1013A000D1FF0EE00A2000F047F96C48008800F4F5
:1013B000FA5020B103A96846FFF7D8FF03E0601C8C
:1013C000C4B2322CEEDB00BF0020644908809DF8D7
:1013D0000C000A2805D19DF8080010B9012004B0BE
:1013E00010BD0020FBE730B587B00546142101A8E9
:1013F00002F00DF809215C48FFF7A4FF00240EE07D
:101400000A2000F019F95548008800F4004020B186
:1014100006A901A8FFF7AAFF03E0601CC4B2322CA2
:10142000EEDB00BF00204D4908809DF8180013280E
:101430000DD1002406E001A904F10A00085C28553A
:10144000601CC4B2082CF6DB012007B030BD0020C0
:10145000FBE770B586B005460E46002400200590D7
:10146000019002900390049000BF06E0295D3F4A7E
:1014700004F109001154601CC4B2082CF6DB0020F2
:101480003A49C874042408E03848005D3749C97CEB
:1014900048403649C874601CC4B2132CF4DB1421D4
:1014A0003248FFF74FFF00240EE00A2000F0C4F896
:1014B0002A48008800F4004020B105A901A8FFF7E0
:1014C00055FF03E0601CC4B2322CEEDB00BF0020ED
:1014D000224908809DF814000E280DD1002406E052
:1014E00001A904F10900085C3055601CC4B2042C49
:1014F000F6DB012006B070BD0020FBE71FB5002021
:10150000039000240090019002900A211848FFF7F0
:1015100019FF0EE00A2000F08FF81048008800F450
:10152000004020B103A96846FFF720FF03E0601CDC
:10153000C4B2322CEEDB00BF0020084908809DF8C1
:101540000C000A2805D19DF8080010B9012004B04C
:1015500010BD0020FBE70000001401408A000020BD
:10156000940100204F00002059000020620000205C
:101570007600002010B504466FF0040000F034FA45
:10158000E11704EB5171C1F3C701394A11701046DC
:10159000007800EB4001C1EBC0104FF6FF7101EA8B
:1015A000C0003449088010BD0146314A12784A43D0
:1015B0004FF0E0235A6100229A611A46126942F004
:1015C00001021A6100BF4FF0E022106900F0010231
:1015D0001AB100F48032002AF5D04FF0E0221269EF
:1015E00022F001024FF0E0231A6100229A61704755
:1015F0000146204A12884A434FF0E0235A610022F4
:101600009A611A46126942F001021A6100BF4FF056
:10161000E022106900F001021AB100F48032002AC1
:10162000F5D04FF0E022126922F001024FF0E023E2
:101630001A6100229A61704770B504464FF4077032
:1016400094FBF0F0C6B24FF4077094FBF0F100FB8E
:10165000114085B205E04FF40770FFF7C9FF701E17
:10166000C6B2002EF7D115B12846FFF7C1FF70BDF5
:101670008000002082000020014600BF704700BFAC
:101680004E4A128802F04002002AF9D0C2B24B4BF7
:101690009A80704710B588B004460121084601F0D1
:1016A00061FD0121102001F0B7FD07220921444806
:1016B00000F0C9FA07220A21414800F0C4FA4FF4A9
:1016C000C060069002208DF81C008DF81D000020DF
:1016D0008DF81E0001208DF81F0006A9384800F083
:1016E00027FA02940020ADF80C00ADF80E00ADF81A
:1016F0001000ADF814000C20ADF8120002A92F481C
:1017000000F041FB01212D4800F0C5FB40212B4892
:1017100000F0A9FC012240F22551284800F071FC9C
:1017200025208DF8040003208DF805008DF80600B3
:1017300001208DF8070001A800F009F908B010BDDC
:1017400010B540F225511D4800F096FC10B31B481F
:1017500000F0D0FBC4B21B48008800F40040C8B9B8
:101760001848008800F4804060B10A2C03D00020A3
:101770001449088020E01348008840F400401149D3
:10178000088019E00D2C06D10E48008840F48040F6
:101790000C49088010E00B480088C0F30D000A498E
:1017A0000C5408480088401C0649088008460088F8
:1017B000C72801DD0020088010BD00000010014096
:1017C0000000024088000020CC00002010B588B046
:1017D00004460121042001F0C5FC0121202001F074
:1017E0001BFD08220621424800F02DFA082207219D
:1017F0003F4800F028FAC020069002208DF81C0017
:101800008DF81D0000208DF81E0001208DF81F00AE
:1018100006A9374800F08CF902940020ADF80C00BE
:10182000ADF80E00ADF81000ADF814000C20ADF8C6
:10183000120002A92F4800F0A6FA01212D4800F05D
:101840002AFB40212B4800F00EFC012240F22551DA
:10185000284800F0D6FB47208DF8040003208DF8BF
:1018600005008DF8060001208DF8070001A800F0A2
:101870006EF808B010BD10B540F225511D4800F0BB
:10188000FBFB002833D01B4800F034FBC4B2AA2C69
:101890000CD11948008848B91748008840F48040A6
:1018A000154908800846007814490C5412480088ED
:1018B00080B11148007811490C540F480178104844
:1018C0000078C01C814205D10B48008840F40040DC
:1018D0000949088008480078022803D10748807821
:1018E0000749087004480088401C0349088010BD5F
:1018F00000080240001401408A00002094010020EA
:101900008C0000200948804709480047FEE7FEE7B1
:10191000FEE7FEE7FEE7FEE7FEE7FEE7FEE7FEE79F
:1019200004480549054A064B70470000610300085A
:1019300089010008C0020020C0080020C004002067
:10194000C004002032490143324A1160704770B52B
:10195000002100230F22C4781CB32E4C246804F409
:10196000E064C4F5E064C4F30721C1F10404E3B208
:101970000A4144789C40E1B28478144021430C072A
:10198000210E254C05786155047804F01F050124CB
:10199000AC4005786D11AD0005F1E025C5F80041BA
:1019A00009E0047804F01F050124AC401B4D0678C3
:1019B000761145F8264070BD194A0A400243154B7E
:1019C0001B1F1A60704739B1124A121D1268024378
:1019D000104B1B1D1A6006E00E4A121D126882434E
:1019E0000C4B1B1D1A607047042808D14FF0E021F2
:1019F000096941F004014FF0E022116107E04FF066
:101A0000E021096921F004014FF0E02211617047E3
:101A10000000FA050CED00E000E400E080E100E0E9
:101A200080FFFF1F10B504469848844208D1012169
:101A3000084601F002FC0021012001F0FEFB76E0E7
:101A40009348844208D10121022001F0F6FB0021D5
:101A5000022001F0F2FB6AE08E48844208D10121A5
:101A6000042001F0EAFB0021042001F0E6FB5EE027
:101A70008948844208D10121082001F0DEFB0021C1
:101A8000082001F0DAFB52E08448844208D10121A9
:101A9000102001F0D2FB0021102001F0CEFB46E027
:101AA0007F48844208D10121202001F0C6FB00219B
:101AB000202001F0C2FB3AE07A48844208D101219B
:101AC000402001F0BAFB0021402001F0B6FB2EE0DF
:101AD0007548844208D10121802001F0AEFB00212D
:101AE000802001F0AAFB22E07048844208D1012145
:101AF000801501F0A2FB0021A01501F09EFB16E06D
:101B00006B48844208D10121401501F096FB002169
:101B1000601501F092FB0AE06648844207D101217A
:101B2000001501F08AFB0021201501F086FB10BD95
:101B3000F0B50A4600210023002400BF3DE0012546
:101B400005FA01F3156805EA03049C4234D10568DF
:101B50004F000326BE40B543056015794E00B540E1
:101B60000668354305601579012D02D01579022DDF
:101B700016D185684F000326BE40B5438560557970
:101B80004E00B540866835438560456801268E4025
:101B9000B5434560456896798E40B6B23543456099
:101BA000C5684F000326BE40B543C560D5794E00D9
:101BB000B540C6683543C560491C1029BFD3F0BD88
:101BC0004FF6FF7101600021017141718171C17196
:101BD000704708B54FF480320092009A0A43009291
:101BE000009AC261C161009AC261C2690092C26971
:101BF000009208BD0246002013690B400BB1012082
:101C000000E0002070470146086980B27047024634
:101C1000002053690B400BB1012000E00020704709
:101C20000146486980B2704701837047418370471D
:101C30000AB1018300E04183704741617047426906
:101C40004A4042617047F0B5002300244D07ED0E75
:101C500002FA05F3CE1000F1200555F826504E0784
:101C6000F70E0F26BE40B543CF1000F1200646F810
:101C70002750CE1000F1200555F8265045EA030400
:101C8000CE1000F1200545F82640F0BD00000240CE
:101C90000004024000080240000C02400010024014
:101CA0000014024000180240001C024000200240C4
:101CB000002402400028024010B50446FA4884423D
:101CC00008D10121102001F0FCFA0021102001F0C0
:101CD000F8FA57E0F548844209D10121480401F09F
:101CE000DFFA00214FF4003001F0DAFA4AE0F04860
:101CF000844209D10121880401F0D2FA00214FF475
:101D0000802001F0CDFA3DE0EA48844209D101216A
:101D1000C80401F0C5FA00214FF4002001F0C0FA18
:101D200030E0E548844209D10121080501F0B8FA04
:101D300000214FF4801001F0B3FA23E0DF48844221
:101D400008D10121202001F0BCFA0021202001F05F
:101D5000B8FA17E0DA48844209D10121880701F076
:101D60009FFA00214FF0804001F09AFA0AE0D5482E
:101D7000844207D10121400501F092FA002160055B
:101D800001F08EFA10BD2DE9FF4705460E460024EE
:101D9000A14600BFA046B08900B100BF2C8A24F440
:101DA0004054F08804432C82AC8941F20C60844397
:101DB000B08831890843718908430443AC81AC8AF7
:101DC00024F44074B0890443AC82684601F0F9F809
:101DD000B548854202D0B948854202D1DDF80C9061
:101DE00001E0DDF80890A88900F4004040B109EB5B
:101DF000C90000EB091031684900B0FBF1F707E0BA
:101E000009EBC90000EB091031688900B0FBF1F75C
:101E10006420B7FBF0F004012009642101FB107875
:101E2000A88900F4004040B1322000EBC800B0FBAC
:101E3000F1F000F00700044308E0322000EB081046
:101E40006421B0FBF1F000F00F0004432C81BDE8E9
:101E5000FF874FF41651016000218180C18001810C
:101E60000C21418100218181704710B5024600207C
:101E7000108A20F470600B884C8823438C8823439D
:101E8000CC8823431843108210BD0021018041807B
:101E90008180C180704721B1828942F400528281E1
:101EA00004E082894DF6FF731A4082817047028BED
:101EB00002F47F420283028B0A430283704721B1FE
:101EC000828942F40042828103E08289C2F30E02D9
:101ED0008281704721B1828A42F40062828204E0EA
:101EE000828A4FF2FF731A4082827047C1F3080260
:101EF0008280704701468888C0F308007047028AD4
:101F00004FF6F0731A400282028A0A430282704737
:101F100021B1828942F00202828104E082894FF677
:101F2000FD731A408281704782894FF2FF731A4015
:101F3000828182890A4382817047028A4FF6DF7369
:101F40001A400282028A0A430282704721B1028A41
:101F500042F48042028204E0028A4BF6FF731A4088
:101F600002827047818941F001018181704721B16E
:101F7000828A42F00802828204E0828A4FF6F77376
:101F80001A4082827047028BD2B20283028B42EAED
:101F900001220283704721B1828A42F020028282AC
:101FA00004E0828A4FF6DF731A408282704721B1C3
:101FB000828A42F01002828204E0828A4FF6EF7336
:101FC0001A4082827047828A4FF6FB731A408282DF
:101FD000828A0A438282704721B1828A42F00202D9
:101FE000828204E0828A4FF6FD731A408282704733
:101FF0001AB1838A0B43838202E0838A8B438382F4
:102000007047F0B50346002400260025002040F666
:102010006A17B94200D100BF1846C1F3421401F05B
:102020001F06012707FA06F5012C01D10C3004E048
:10203000022C01D1103000E014301AB107682F4390
:10204000076002E00768AF430760F0BD024600206A
:10205000B1F5007F00D100BF13880B400BB1012008
:1020600000E00020704701F40072B2F5007F00D15B
:1020700000BFCA430280704770B5024600240023A7
:102080000025002040F66A16B14200D100BFC1F31E
:10209000421501F01F03012606FA03F3012D13D1A7
:1020A0009689334017E000000010014000440040D2
:1020B00000480040004C0040005000400014014027
:1020C00000780040007C0040022D02D1168A334087
:1020D00001E0968A33400C12012606FA04F41688B1
:1020E000344013B10CB1012000E0002070BD10B5E8
:1020F0000022002340F66A14A14200D100BF0A1258
:1021000001249440A3B2DC43048010BD10B5044602
:10211000FE48844208D10121084601F0D2F800218E
:10212000012001F0CEF89DE0B4F1804F08D10121EB
:10213000084601F0B5F80021012001F0B1F891E066
:10214000F348844208D10121022001F0A9F80021BE
:10215000022001F0A5F885E0EE48844208D1012173
:10216000042001F09DF80021042001F099F879E0A5
:10217000E948844208D10121082001F091F80021AA
:10218000082001F08DF86DE0E448844208D1012177
:10219000102001F085F80021102001F081F861E0A5
:1021A000DF48844208D10121202001F079F8002184
:1021B000202001F075F855E0DA48844208D1012169
:1021C000022001F07EF80021022001F07AF849E0B7
:1021D000D548844209D10121080401F072F8002198
:1021E0004FF4803001F06DF83CE0D048844209D1D2
:1021F0000121480401F065F800214FF4003001F09E
:1022000060F82FE0CA48844209D10121880401F016
:1022100058F800214FF4802001F053F822E0C5481F
:10222000844208D10121402001F03AF800214020E9
:1022300001F036F816E0C048844208D10121802020
:1022400001F02EF80021802001F02AF80AE0BB48B6
:10225000844207D10121801501F022F80021A01548
:1022600001F01EF810BD00220288A84B98420ED043
:10227000AC4B98420BD0B0F1804F08D0A44B9842A1
:1022800005D0A44B984202D0A34B984204D14FF6FC
:102290008F731A404B881A43A04B984207D0A04B2B
:1022A000984204D04FF6FF431A400B891A4302802C
:1022B0004B68C3620B880385944B984202D0994BBC
:1022C000984201D18B7A03860123838270474FF0B5
:1022D000FF3141600021018001814180817270479E
:1022E0000185828270470A46002101884FF68F736C
:1022F000194011430180704741627047C1627047C5
:102300000146486A70470146088D704721B102882E
:1023100042F00202028004E002884FF6FD731A4088
:102320000280704721B1028842F00402028004E07A
:1023300002884FF6FB731A400280704721B1028871
:1023400042F08002028004E002884FF67F731A4058
:102350000280704702884FF6F7731A4002800288A5
:102360000A430280704702884FF6FF431A400280FA
:1023700002880A430280704721B1028842F00102BC
:10238000028004E002884FF6FE731A400280704714
:1023900070B5002400220023058C4FF6FE763540F0
:1023A0000584028C8388048B4FF68F752C40B51EF4
:1023B0002C400D882C43751E2A408D892A434D8858
:1023C0002A43524DA84202D0564DA84213D14FF68F
:1023D000F7752A40CD892A434FF6FB752A408D8830
:1023E0002A434FF6FF652B404FF6FF552B400D8AD1
:1023F0002B434D8A2B43838004838D68456302847D
:1024000070BD70B5002400220023058C4FF6EF76D6
:1024100035400584028C8388048B48F6FF752C4078
:102420004FF6FF452C400D884FF6FF7606EA05254E
:102430002C434FF6DF752A408D8906EA05152A439D
:102440004D8806EA05152A43304DA84202D0354D85
:10245000A8421DD14FF67F752A40CD894FF6FF76F1
:1024600006EA05152A434FF6BF752A408D8806EA0D
:1024700005152A434FF6FF352B404FF2FF752B40D1
:102480000D8A06EA85052B434D8A06EA85052B430E
:10249000838004838D688563028470BD70B50024D9
:1024A00000220023058C4FF6FF6635400584028C20
:1024B0008388848B4FF68F752C404FF6FC752C402B
:1024C0000D882C434FF6FF552A408D894FF6FF7635
:1024D00006EA05252A434D8806EA05252A430B4DC1
:1024E000A84202D00F4DA84238D14FF2FF752A40C2
:1024F000CD894FF6FF7606EA05252A434FF6FF35CC
:102500002A408D8806EA05252A4319E0000001408B
:102510000004004000080040000C00400010004093
:10252000001400400004014000400140004401400C
:102530000048014000180040001C004000200040FE
:102540004EF6FF752B404DF6FF752B400D8A06EABF
:1025500005152B434D8A06EA05152B43838084839A
:102560008D68C563028470BD70B50022002300240D
:10257000058C4EF6FF7635400584038C8488828B6B
:1025800048F6FF752A404FF6FF452A400D884FF662
:10259000FF7606EA05252A434DF6FF752B408D8907
:1025A00006EA05352B434D8806EA05352B43FE4DDB
:1025B000A84202D0FD4DA84208D14BF6FF752C4031
:1025C0000D8A4FF6FF7606EA85152C4384808283B8
:1025D0008D680564038470BD002101804180818085
:1025E00081608181C18101824182704770B503465B
:1025F000002000241846183001258D40ACB21D8CF7
:10260000A5431D8409B108290AD100EB61000568C2
:102610004FF68F76354005600568154305600FE07D
:102620000D1FC5F34E052844056848F6FF76354072
:10263000056005684FF6FF7606EA02263543056019
:1026400070BD4163704781637047C1637047016427
:1026500070470A460021018B4FF68F7319401143D2
:10266000018370470A460021018B48F6FF73194029
:102670004FF6FF7303EA02231943018370470A46AA
:102680000021818B4FF68F7319401143818370476E
:102690000A460021818B48F6FF7319404FF6FF73FD
:1026A00003EA02231943818370470A460021018B04
:1026B0004FF6F77319401143018370470A46002112
:1026C000018B4FF2FF7319404FF6FF7303EA0223A9
:1026D0001943018370470A460021818B4FF6F77337
:1026E00019401143818370470A460021818B4FF2C4
:1026F000FF7319404FF6FF7303EA022319438183E6
:1027000070470A460021018B4FF6FB7319401143B5
:10271000018370470A460021018B4FF6FF331940B1
:102720004FF6FF7303EA02231943018370470A46F9
:102730000021818B4FF6FB73194011438183704751
:102740000A460021818B4FF6FF3319404FF6FF7385
:1027500003EA02231943818370470A460021018B53
:102760004FF67F7319401143018370470A460021D9
:10277000018BC1F30E014FF6FF7303EA02231943E5
:10278000018370470A460021818B4FF67F73194001
:102790001143818370470A460021818BC1F30E01EA
:1027A0004FF6FF7303EA02231943818370470A46F9
:1027B0000021018C4FF6FD731940114301847047CD
:1027C0000A460021018C4FF6F7731940114301842A
:1027D00070470A460021018C4FF6DF7319404FF60F
:1027E000FF7303EA02131943018470470A4600216C
:1027F000018C4FF67F7319404FF6FF7303EA021303
:102800001943018470470A460021018C4FF6FF539B
:1028100019404FF6FF7303EA0223194301847047FE
:102820000A460021018C4FF2FF7319404FF6FF73E7
:1028300003EA02231943018470470A460021018CF0
:102840004DF6FF7319404FF6FF7303EA0233194345
:102850000184704730B5002301248C40A3B2048C5E
:102860009C430484048C02FA01F5ADB22C43048429
:1028700030BD30B5002304248C40A3B2048C9C43AB
:102880000484048C02FA01F5ADB22C43048430BDFB
:10289000828B4FF2FF331A408283828B4FF6FF7395
:1028A00003EA01231A4382837047F0B50C461546AC
:1028B000002100220026078C4EF6FF7C07EA0C0759
:1028C0000784818B028C4FF6FF7707EA043640F6C7
:1028D000FF4739404FF6FF7707EA052739434FF6A0
:1028E000FF7707EA0337394345F6FF773A4046F466
:1028F00080573A4381830284F0BD828B4FF6F37395
:102900001A408283828B0A4382837047F0B50C465B
:102910001546002100220026078C4FF6FF6C07EABF
:102920000C070784818B028C4FF6FF7707EA042699
:102930004FF60C7739404FF6FF7707EA03172F431E
:1029400039434FF2FF573A4046F480773A43818348
:102950000284F0BD028B4FF2FF331A400283028BD8
:102960004FF6FF7303EA01231A4302837047F0B561
:102970000C461546002100220026078C4FF6EF7CFE
:1029800007EA0C070784018B028C4FF6FF7707EAF2
:10299000041640F6FF4739404FF6FF7707EA033742
:1029A00039434FF6FF7703E0000001400004014087
:1029B00007EA052739434FF65F773A4046F010079C
:1029C0003A4301830284F0BD028B4FF6F3731A4041
:1029D0000283028B0A4302837047F0B50C4615460A
:1029E00000210022068C4FF6FE773E400684018BC4
:1029F000028C4FF60C7631407E1C06EA03162E43FD
:102A000031434FF6F576324044F0010632430183FC
:102A10000284F0BD70B505460C46208850B9238964
:102A2000A28861882846FFF7D8FFE1882846FFF78B
:102A3000CBFF25E0208804280AD12389A288618859
:102A40002846FFF794FFE1882846FFF783FF17E049
:102A5000208808280AD12389A28861882846FFF7A0
:102A600055FFE1882846FFF748FF09E02389A2883F
:102A700061882846FFF719FFE1882846FFF708FF1D
:102A800070BD002101804180012181800021C18031
:102A9000018170472DE9F04105460C4600260127CB
:102AA000608808B9022600E00026A088012801D12C
:102AB000022700E001272088A0B92389A288618825
:102AC0002846FFF78AFFE1882846FFF77DFF238924
:102AD0003A4631462846FFF74AFFE1882846FFF785
:102AE00039FF13E02389A28861882846FFF73FFF5A
:102AF000E1882846FFF72EFF23893A4631462846CB
:102B0000FFF76BFFE1882846FFF75EFFBDE8F08125
:102B10000146486B70470146886B70470146C86B99
:102B200070470146086C70470A884B881A438B88A7
:102B30001A43CB881A430B891A434B891A438B8952
:102B40001A43A0F844207047002101804180818011
:102B5000C180018141818181704731B1B0F8442049
:102B600042F40042A0F8442005E0B0F84420C2F34B
:102B70000E02A0F84420704721B1828842F004027E
:102B8000828004E082884FF6FB731A40828070478F
:102B900021B1828842F00102828004E082884FF6EF
:102BA000FE731A40828070471AB183890B43838178
:102BB00002E083898B43838170478182704702469C
:102BC0000020138A0B400BB1012000E00020704769
:102BD000CA430282704730B5024600200023002419
:102BE000158A05EA0103958905EA010413B10CB1C0
:102BF000012000E0002030BDCA430282704741EA54
:102C00000203A0F8483070471AB183890B438381CF
:102C100002E083898B438381704721B1828842F02F
:102C20000802828004E082884FF6F7731A4082809F
:102C3000704701894FF6F8721140018170470A46CA
:102C4000002101894FF68F731940114301817047AC
:102C500030B504460D4629462046FFF7F0FF20898F
:102C600040F00700208130BD2DE9F04104460D46BB
:102C700016461F46602D06D13B46012231462046AE
:102C8000FFF775FE05E03B46012231462046FFF77F
:102C9000A4FE29462046FFF7D2FF208940F0070016
:102CA0002081BDE8F08130B50C4600210189C9B210
:102CB0004FF6FF7505EA0325154325432943018196
:102CC00030BD2DE9F04105460E46174698460024D2
:102CD00043463A4631462846FFF7E5FF2C894FF632
:102CE000F870044044F007044FF68F70044044F03D
:102CF00070042C81BDE8F081F0B504460D461646FF
:102D00001F463B46324629462046FFF7CCFF208926
:102D100040F480402081F0BD82884FF68F731A40C6
:102D2000828082880A438280704702894FF6F87356
:102D30001A40028102890A430281704702894FF6D4
:102D40007F731A40028102890A4302817047F0B5FD
:102D50000C4615461E460021002200230189028BE5
:102D6000038C4FF6F877394021434FF6FC473A4041
:102D700040F201173A434FF6DD773B404FF6FF77BD
:102D800007EA06172F433B43018102830384F0BD0A
:102D900021B1828842F08002828004E082884FF66E
:102DA0007F731A4082807047A0F85010704700006F
:102DB000F948006840F00100F74908600020F64932
:102DC00008310860F4480068F4490840F249086096
:102DD000F348091D0860F348EF4984310860F04862
:102DE0001038091D0860EC48006820F48020EA498A
:102DF00008600020E8490C310860E7498C31086020
:102E000070470021E44A921C117011460870704707
:102E100010B501460022002300204A11012A02D1E8
:102E2000DD4C236808E0022A03D1DB4C70342368B0
:102E300002E0D94C7434236801F01F02012494404D
:102E40001C400CB1012000E0002010BD38B500206E
:102E500000900024002500BF3120FFF7D9FF054670
:102E60000098401C00900098B0F5A04F01D0002DB4
:102E7000F2D03120FFF7CCFF08B1012400E000249C
:102E8000204638BD01460020C34A106820F0F800F3
:102E900040EAC10010607047C349086070470021D4
:102EA000BD4A703211701170012802D004280AD175
:102EB00004E00121B84A7032117005E00521B64ADC
:102EC0007032117000E000BF00BF7047B749086062
:102ED000704770B5049C41EA82150126C6EB530683
:102EE00045EA0645054345EA0465AB4E361D3560A7
:102EF00070BDAD4908667047820142EA0172A64B77
:102F000084331A607047A8498866704710B58301FA
:102F100043EA016343EA02739F4C8834236010BD87
:102F2000A14908677047A049C8647047024600205D
:102F3000994B0833186820F0EC6042EA010318430B
:102F4000954B08331860704702460020924B0833B7
:102F5000186820F0784042EA010318438E4B08338A
:102F600018607047014600208B4A0832106820F034
:102F7000030008431060704787480830006800F07D
:102F80000C00704701460020834A0832106820F088
:102F9000F000084310607047014600207E4A083266
:102FA000106820F4E050084310607047014600208C
:102FB000794A0832106820F4604040EAC10010608D
:102FC0007047F0B5002100220024022500260223CC
:102FD000714F08373F6807F00C0121B1042905D073
:102FE000082937D105E0724F076036E0714F07605E
:102FF00033E0694F3F1D3F68C7F38056664F3F1D62
:103000003F6807F03F036EB16A4FB7FBF3F7DFF895
:1030100088C10CF1040CDCF800C0CCF3881C07FB61
:103020000CF40CE0624FB7FBF3F7DFF86CC10CF166
:10303000040CDCF800C0CCF3881C07FB0CF4564FE2
:103040003F1D3F68C7F301477F1C7D00B4FBF5F7C8
:10305000076002E0564F076000BF00BF4E4F0837C1
:103060003F6807F0F0010909534F7A5C0768D740C1
:103070004760494F08373F6807F4E051890A4E4FCF
:103080007A5C4768D7408760434F08373F6807F44A
:103090006041490B484F7A5C4768D740C760F0BD34
:1030A000002100F44072B2F5407F0AD13A4A08325A
:1030B000116821F4F811414A02401143364A08329E
:1030C0001160354A70321268C0F30B031A43324B59
:1030D00070331A6070473549443908607047334986
:1030E0004039086070473649086070470146002043
:1030F000294A8C32106820F01F004A1E1043264ACD
:103100008C321060704701460020234A8C321068D0
:1031100020F4F8504A1E40EA02201F4A8C32106008
:103120007047014600201C4A8C32106820F4401081
:1031300008431060704701460020174A8C3210681F
:1031400020F4400008431060704701460020124AF6
:103150008C32106820F440300843106070471949E1
:103160000860704739B10C4A3032126802430A4B8A
:1031700030331A6006E0084A303212688243064B48
:1031800030331A607047F9B1034A3432126802438F
:10319000014B34331A601CE000380240FFFFF6EAAE
:1031A000103000240030002000004742800E4742CB
:1031B0000024F40000127A008D000020FFFCFF0FB5
:1031C0005C014742E01147428F4A126882438E4BAE
:1031D0001A60704739B18C4A121D126802438A4B3B
:1031E0001B1D1A6006E0884A121D12688243864B36
:1031F0001B1D1A60704739B1834A0C3212680243B2
:10320000814B0C331A6006E07F4A0C32126882430D
:103210007D4B0C331A60704739B17B4A103212680B
:103220000243794B10331A6006E0774A1032126875
:103230008243754B10331A60704739B1724A243A91
:1032400012680243704B243B1A6006E06E4A243A2F
:10325000126882436C4B243B1A60704739B16A4A4A
:10326000203A12680243684B203B1A6006E0664A27
:10327000203A12688243644B203B1A60704739B190
:10328000614A1C3A126802435F4B1C3B1A6006E01D
:103290005D4A1C3A126882435B4B1C3B1A607047C4
:1032A00039B1594A143A12680243574B143B1A6019
:1032B00006E0554A143A12688243534B143B1A6095
:1032C000704739B1504A103A126802434E4B103BD6
:1032D0001A6006E04C4A103A126882434A4B103B8F
:1032E0001A60704739B1484A1C3212680243464B93
:1032F0001C331A6006E0444A1C3212688243424B77
:103300001C331A60704739B13F4A203212680243B9
:103310003D4B20331A6006E03B4A2032126882435C
:10332000394B20331A60704739B1374A243212685A
:103330000243354B24331A6006E0334A24321268C4
:103340008243314B24331A60704739B12E4A2C32F4
:10335000126802432C4B2C331A6006E02A4A2C32A6
:1033600012688243284B2C331A60704739B1264AC1
:10337000303212680243244B30331A6006E0224A8E
:10338000303212688243204B30331A607047012874
:1033900008D11D493C31096841F008011A4A3C3204
:1033A000116007E018493C31096821F00801164A0C
:1033B0003C321160704739B1134A273A1278024300
:1033C000114B273B1A7006E00F4A273A12788243C6
:1033D0000D4B273B1A7070470B484030006840F097
:1033E0008070094940310860704701460020064A54
:1033F000283A12680A400AB1012000E00020704714
:1034000001492639087070473438024070474FF040
:10341000000200B5134694469646203922BFA0E824
:103420000C50A0E80C50B1F12001BFF4F7AF090730
:1034300028BFA0E80C5048BF0CC05DF804EB890021
:1034400028BF40F8042B08BF704748BF20F8022B64
:1034500011F0804F18BF00F8012B7047704770477C
:1034600070477047754600F029F8AE46050069467A
:10347000534620F00700854618B020B5FEF750FAF5
:10348000BDE820404FF000064FF000074FF0000865
:103490004FF0000B21F00701AC46ACE8C009ACE8E6
:1034A000C009ACE8C009ACE8C0098D4670470446C5
:1034B000AFF300802046FCF7B0FE000000487047E4
:1034C0005C02002021F00042A2F16052B2F5801FA0
:1034D00001F0004328BFD2F17F6C0BD95FEA001CDA
:1034E00043EAC20242EB507018BF704728BF20F079
:1034F00001007047B2F5801FBCBF184670474FEA05
:10350000410C1CF5001F02D2084600F077BA70B5D6
:1035100000F0AAF900000089FFF7F6BF4FF0004065
:10352000A0F580007047491058BFC1F140415B10C1
:1035300058BFC3F140438B42EFF300807047000057
:103540002DE9C04130B4DFF8A0C23CEA111418BF25
:103550003CEA131400F0EC8081EA03051CEA111424
:1035600044EAD57418BF1CEA131500F0C780A4EB19
:1035700005044FF0004545EAC12145EAC32341EA6D
:10358000505143EA525304F17F74994204F50034D8
:103590004FEAC0204FEAC22208BF904200F09C8050
:1035A0004FEA13650FF24016765D4FEA134506FBAE
:1035B00005F7C7F1807706FB07F74FEAD737A7FB78
:1035C00003687642C8F58038A7FB06CE38BFA8F15D
:1035D000010807FB08E64FF0000EA6FB028CE6FB95
:1035E00003CEDCF1000CCEF1004E38BFAEF1010E7F
:1035F000A6FB0C584FF000074FF00005E6FB0E87C6
:10360000A1FB08C6A0FB07CE16EB0E0645F1000590
:10361000E1FB076515F1E04E7EBFA4F580345FEA5B
:1036200046066D4116F1800745F100054FEA172760
:103630004FEA066647EA0567A6F1DE46B6F1805F07
:103640004FEA15251FD9384624F0010C05EBC4714B
:10365000BCF1FE6F01EB0C1102D8F0BCBDE800819B
:1036600024425CBF01F5801E9EEAC47F02D4F0BCF8
:10367000BDE80081244238D4F0BCA1F1C041BDE8CE
:10368000004100F03FB94FEAD22242EA43524FEAEA
:10369000D323A7FB02864FEAD02040EA415007FB24
:1036A00003661EEA0E0F4FEAD12105FB026658BFE2
:1036B000A6EB0056B6EB00564FEA520E4EEAC37E1A
:1036C00018EB0E0E56EB530EBDD518EB02085E41FB
:1036D0007F1C55F10005B6E74FF480154FF0000749
:1036E0004FF000064FF00008ADE7F0BC4FF00000CF
:1036F00001F1C04101F00041BDE8008111EA0C1F59
:103700000CEA131500D00CE013EA0C1F00F0258022
:103710004FF00000F0BC81EA030101F00041BDE878
:103720000081F0BC81EA0301BDE8004100F0EAB885
:10373000F0BCBDE8004170B500F096F8097EFC3E93
:1037400000F007B881EA03014FF0000001F00041EA
:10375000704781EA030100F0D5B8F0BC4FF00000DB
:103760002249BDE800417047FFFDFBF9F7F5F4F28F
:10377000F0EEEDEBE9E8E6E4E3E1E0DEDDDBDAD80C
:10378000D7D5D4D3D1D0CFCDCCCBCAC8C7C6C5C46A
:10379000C2C1C0BFBEBDBCBBBAB9B8B7B6B5B4B381
:1037A000B2B1B0AFAEADACABAAA9A8A8A7A6A5A46C
:1037B000A3A3A2A1A09F9F9E9D9C9C9B9A99999830
:1037C0009797969595949393929191908F8F8E8ED3
:1037D0008D8C8C8B8B8A8989888887878685858460
:1037E00084838382828181800000FF070000F87F4C
:1037F00051EA030C17D41CF5801F58BFBCF5801F7D
:1038000000F10680994218BF704708BF9042704788
:1038100007D711F5801F58BF13F5801F19D499429F
:103820007047894270471CF5801F08D5BCF5801F82
:10383000F7D58B4218BF704708BF824270474FF4DC
:10384000001C1CEB410F38BF1CEB430F01D28B4215
:10385000704770B500F008F8922449004FF000510D
:103860004FF08053FFF75FBE0EF1020E2EF0030EF5
:103870005EF8046B364205D4012A43EB030515F5C7
:10388000001F12D8012841EB010C1CF5001F0CD8B9
:103890000ED14FEAD17C15F5001F0CEB4C0C0CF14E
:1038A000020C08BF4CEBD37C04E04FF0080C01E0A5
:1038B0004FEAD37C0CEB4C0526FA05F606F007061A
:1038C000B6F1040C06D20EEB860CBDE870404CF04D
:1038D000010C6047DFE80CF0090B02024FF00041D9
:1038E0004FF00000A1F5002170BD194610460128D7
:1038F00051EB010418BFD4F5001484BF002001F07F
:10390000004170BD0808A0F500114FEA3101704771
:1039100043004FEAD30C4FEA3C0C43401FBF400723
:103920000CF1605113F0FE4F70471CF0006F03D193
:1039300000200CF0004170470CF0004343EA507047
:1039400010B540EACC0000F00EF800BF0000009275
:103950004FEA0001FFF7D6BF4FF000414FF00000E3
:10396000A1F5002170470EF1020E2EF0030E5EF855
:10397000044B244204D44FEA4102B2F17F4F11D8E4
:103980004FEA4003B3F17F4F0CD80ED14FEAD07C01
:10399000B2F17F4F0CEB4C0C0CF1020C08BF4CEB5E
:1039A000D17C04E04FF0080C01E04FEAD17C0CEB35
:1039B0004C0324FA03F404F00704B4F1040C06D217
:1039C0000EEB840CBDE810404CF0010C6047DFE8C2
:1039D0000CF0070802024FF00040A0F5800010BD77
:1039E0000846420018BFD2F1807288BF00F0004044
:1039F00010BD4FF04070E1EE100A7047FF2141EA20
:103A0000D050C0057047000100020003000400050B
:103A10000006000700080102020100003C3A00080D
:103A200000000020A0000000C4010008DC3A0008EB
:103A3000A000002020080000E0010008007A030A2E
:103A4000000000000000000001020304060708094E
:103A50000000000000000000000000000000000066
:103A60000100000000000000010000000000000054
:103A700000000000000000000000F0410000000015
:103A80000000000000000000000000AABB060000CB
:103A90000008013138AABB05000000011011AABBC3
:103AA00010000000051002000000000000000000EF
:103AB0000100AABB060000000C01000D0000000080
:103AC00000000000000000000000000000010203F0
:0C3AD000040102030406070809000000BE
:040000050800018965
:00000001FF
